:100000000C9434000C943E000C943E000C943E0082
:100010000C943E000C943E000C943E000C943E0068
:100020000C943E000C943E000C943E000C943E0058
:100030000C943E000C943E000C943E000C943E0048
:100040000C943E000C943E000C943E000C943E0038
:100050000C943E000C943E000C943E000C943E0028
:100060000C943E000C943E0011241FBECFEFD8E04C
:10007000DEBFCDBF0E9441000C9473000C940000C1
:10008000FFCF0E9443000F931F9380E284B920E0CA
:1000900030E092E44FE050E066E8E1E0F0E0D901C2
:1000A000890185B971E0AF33B9070407150708F076
:1000B000712D7170AF5FBF4F0F4F1F4F703089F7B9
:1000C000D901890107C07170AF5FBF4F0F4F1F4F3C
:1000D000703029F315B871E0AF39B6070E071F0766
:0A00E00090F3712DF0CFF894FFCFDC
:00000001FF
